:1000000000400020F50700003D0800003F08000008
:1000100000000000000000000000000000000000E0
:100020000000000000000000000000004108000087
:100030000000000000000000430800004508000028
:100040004708000047080000470800004708000074
:1000500047080000000000004708000047080000B3
:100060004708000047080000190200004708000088
:100070004708000047080000470800004708000044
:100080004708000047080000470800004708000034
:100090004708000047080000470800004708000024
:1000A00047080000470800000000000000000000B2
:1000B0000000000000000000000000000000000040
:1000C00010B5064C2378002B07D1054B002B02D02E
:1000D000044800E000BF0123237010BD5408002035
:1000E000000000005014000008B5084B002B03D09E
:1000F0000748084900E000BF07480368002B00D10B
:1001000008BD064B002BFBD09847F9E70000000024
:100110005014000058080020500800200000000083
:10012000164B002B00D1144B9D46402292029A1A86
:10013000924600218B460F461348144A121A00F0CB
:1001400069FE0F4B002B00D098470E4B002B00D0C0
:1001500098470020002104000D000D48002802D01F
:100160000C4800F043FF00F07FFB2000290000F066
:10017000F9F800F069FBC0460000080000400020CC
:10018000000000000000000054080020F8080020D3
:10019000ED0F0000FD0F000070B50024074D084E64
:1001A000315D281C0A2200F02FF90134281C00F0D0
:1001B0007DFA0835082CF3D170BDC046B408002084
:1001C0003C1400000021104B104A802010B59950BB
:1001D00001228000DA601950A2200624C0001C50C1
:1001E00008381950A8218020C9005A500849000237
:1001F0005850C020C12180028900585080200549F4
:10020000C00008601A6010BD00A000400405000096
:100210004405000000E100E0A022F0B5474B520089
:10022000995883B0002923D0C12189005958C903A6
:100230001ED50025424C9D502378002B00D078E03D
:100240006378002B00D06EE0A378002B65D1E378B3
:10025000002B5CD12379002B53D16379002B4AD139
:10026000A379002B41D1E379002B38D103B0F0BD45
:10027000A222324B520099580029F7D0C12189009F
:1002800059588903F2D50021002600272C4C2D4D0A
:100290009950A068B1B2C00028180097002200232E
:1002A000013600F01BFA0A2EF3D1012200260A279C
:1002B000A368E254A368063201331340A360A06828
:1002C000B1B2C0002818009700220023013600F0C8
:1002D00005FA0A2EF3D10122A368E254C6E71A48B0
:1002E00000F0BEF80023E371C0E7184800F0B8F84A
:1002F0000023A371B7E7164800F0B2F8002363713A
:10030000AEE7144800F0ACF800232371A5E71248CB
:1003100000F0A6F80023E3709CE7104800F0A0F876
:100320000023A37093E70E4800F09AF8002363704F
:100330008AE7044800F094F8257081E700A00040A7
:1003400070080020B4080020EC080020E408002019
:10035000DC080020D4080020CC080020C4080020BD
:10036000BC08002010B5FFF717FF0021114B124AFF
:100370008020995001228000DA601950A2200624C2
:10038000C0001C5008381950A8218020C9005A50BC
:100390000A4900025850C020C121800289005850EB
:1003A00080200749C00008601A6030BF40BF20BFEE
:1003B000FBE7C04600A00040040500004405000023
:1003C00000E100E082B00190019B002B17D0019B5F
:1003D000013B01930B4BC046C046C046C046C046D9
:1003E000C046C046C046C046C046C046C046C046DD
:1003F000C046013B002BEED1019B002BE7D102B0A0
:100400007047C046E7030000F8B50F1C5500AD1853
:10041000041C281C161C00F04BFA3B1CA0220321D4
:10042000C133FF33D2059B0060602770668099500E
:100430000239B940094BD15000230021002E01D1CF
:100440000AE06068C1546268D21851706268D218BC
:10045000033391709D42F4D1F8BDC0460C050000F5
:10046000F0B55F4656464D4644460122F0B4037847
:10047000A0219A40131C7E4AC9058B50322283B0BA
:10048000C046C046C046C046C046C046C046C0463C
:10049000C046C046C046C046C046C046013A002AD3
:1004A000EED142880192002A00D198E0002240213A
:1004B00093467F329246A124A0224668894620397D
:1004C00088466B4810390336D205E4000091F11ECE
:1004D00057460D781351BD4300D1CBE0C046C0460E
:1004E000C046C046C046C046C046C046C0464F464D
:1004F00013500D7813512F4200D1CBE0C046C046B7
:10050000C046C046C046C046C046C046C04613505E
:1005100047460D7813512F4200D19EE0C046C04699
:10052000C046C046C046C046C046C046C04613503E
:100530000D78009F13512F4200D183E0C046C04682
:10054000C046C046C046C046C046C046C04613501E
:1005500008270D7813512F4200D168E0C046C046ED
:10056000C046C046C046C046C046C046C0461350FE
:100570000D7813516D0700D44EE0C046C046C0460A
:10058000C046C046C046C046C046C04613500D785F
:100590001351AD0735D5C046C046C046C046C0461B
:1005A000C046C046C046C04613500D781351ED07F3
:1005B0001CD5C046C046C046C046C046C046C04620
:1005C000C046C046135001318E4200D080E7012161
:1005D0008C460199E34403368B4500DA77E703B094
:1005E0003CBC90469946A246AB46F0BDC04613506F
:1005F000C046C046C046C046C046C046C046C046CB
:10060000E1E7C0461350C046C046C046C046C0469B
:10061000C046C046C046C8E7C0461350C046C046A4
:10062000C046C046C046C046C046C046AFE7C0460A
:100630001350C046C046C046C046C046C046C0462D
:10064000C04695E7C0461350C046C046C046C046A7
:10065000C046C046C046C0467AE7C0461350C046B2
:10066000C046C046C046C046C046C046C0465FE71A
:100670000C050000C0461350C046C046C046C046E8
:10068000C046C046C046C0464F460D7813512F4263
:1006900000D033E7C0461350C046C046C046C046EF
:1006A000C046C046C046C04632E7C046438810B583
:1006B00000220024002B0ED0416853009B18CC541C
:1006C00041680132C9184C7041688C4663449C7083
:1006D00043889342F0DCFFF7C3FE10BD70B5458838
:1006E00004AC267801248D420AD94C006118446874
:1006F00064186270002442685354436859188E701D
:10070000201C70BD70B5458804AC267801248D424C
:100710000DD94C0061184468641862704268002466
:10072000535443689C4661448E70FFF799FE201C29
:1007300070BDC04610B5041C406800F0C3F800232B
:100740006380237010BDC046014A024B1A60704797
:100750000024F400040000201F4B1B78012B00D064
:1007600070471E4B1B681B07FAD1F0221C4B1B68FD
:10077000134018D11B4B1B6813421AD0174B1B6830
:100780001B07EDD1F022164B1B681340402BE7D11D
:10079000144B1B681342E3D1C12380220121DB00EB
:1007A000D205D150DCE7102B0FD10E4B1B68134242
:1007B000E8D10D4A0D4B1A6080220D4B12021A60CF
:1007C000054B1B78012BD9D0CAE7302BDAD1054B6A
:1007D0001B681342D6D1ECE7E00F00F0E40F00F005
:1007E000E80F00F0EC0F00F0DFFF07C00405004049
:1007F000186C004003210A4802680A430260094855
:1008000002680A4302600849084A094B9B1A03DD43
:10081000043BC858D050FBDC0648804706480047D8
:1008200024050040540500405C1400000000002036
:10083000540800205907000021010000FEE7FEE7F0
:10084000FEE7FEE7FEE7FEE710B50021041C00F01E
:1008500049FB044B1868C36B002B00D09847201C41
:1008600000F0DEFD4C14000070B50D4E0D4D00245F
:10087000AD1BAD1005D0A300F35801349847A54235
:10088000F9D100F0CFFD084E084D0024AD1BAD108E
:1008900005D0A300F35801349847A542F9D170BDA3
:1008A0004408002044080020440800204C08002090
:1008B00008B5034B011C186800F00EF808BDC046CF
:1008C0003004002008B5034B011C186800F000FC40
:1008D00008BDC04630040020F0B55F464D46564680
:1008E0004446F0B40D1C0B3583B0071C162D2DD9D2
:1008F00007239D4300D5C7E0A94200D9C4E000F01A
:10090000CFFAF823FF339D4228D8E908CB4ECB001D
:10091000F318DC689C4200D1C1E1032362689A436A
:10092000131CE268A168CA6091600122E31859684B
:10093000381C0A435A6000F0B5FA201C083003B096
:100940003CBC90469946A246AB46F0BD102900D962
:100950009AE0381C00F0A4FA1025D6E7690A00D105
:1009600096E0042900D93CE138239C46A9098C442F
:1009700063465900B14E89007118CC68A14215D068
:10098000032362689A43131C521B0F2A00DD83E085
:100990000320002A07DBC4E7636883435A1B0F2A3E
:1009A0007ADC002ABDDAE468A142F5D16146013162
:1009B0000091321C34690832944200D161E1032372
:1009C000616899430B1C481B0F2800DD48E17261E8
:1009D00032610028A9DA9A4A914200D90DE1012337
:1009E000C8088210934072681A43C300F3189868CD
:1009F000E360A0609C60131C7260C4600120009AD8
:100A00009210904098424CD818420DD10322009980
:100A1000400091430A1D0092184205D1009A4000FF
:100A2000043200921842F9D003239846009AD3006A
:100A30009946B144CC4692466346DC68A44507D14A
:100A400021E1002A00DB33E1E468A44500D11AE18A
:100A50004246636893435A1B0F2AF2DD0121631952
:100A60000D436560E068A5680836E860114385605D
:100A7000F360B360381CDE609E6059609A5000F0ED
:100A800011FA201C08305AE70C2300203B6056E77F
:100A90003F237E219C466DE701235B429846C44478
:100AA00084E70323B46862689A439046954203D86A
:100AB000521B0F2A00DD86E0231C4344614A019348
:100AC000614B93461B681268EB18013200D15CE160
:100AD0005E4A944663441B0B1B030093381C009929
:100AE00000F0E2F9031C8146013360D0019B834290
:100AF00000D9F8E0564B009A9A461B689C4653462C
:100B000062441A60019B4B4500D14CE15B461B6877
:100B1000013300D15EE14B4601995B1AD21853466E
:100B20001A6007234A46134000D113E10821894681
:100B3000D21A9144474AD21A009B381C4B441B05D9
:100B40001B0DD31A191C9B4600F0AEF9431C00D1B3
:100B500034E14B46C01A01235844184353461B68DE
:100B60005B441A1C53461A604B46B3605860B4424B
:100B700013D043460F2B00D8F7E0434607216068A7
:100B80000C3B8B4306390140052019436160E11895
:100B9000486088600F2B00D914E12F4B19688A42F6
:100BA00000D91A602D4B19688A4200D91A600323B4
:100BB000B46862689A43131C5A1B9D4200D9B9E07D
:100BC0000F2A00DCB6E00123291C651919431343E1
:100BD0006160381CB5606B6000F064F9201C08305F
:100BE000ADE6142973D9542900D9A8E06E239C4698
:100BF000290B8C4463465900BCE64A0A042A6CD887
:100C00008A093832101C520092009446B44462465D
:100C1000032192688846624500D19EE041465068B3
:100C20008843834202D292689445F7D1D0687368B2
:100C3000E060A2608460D460E0E6C0463404002036
:100C4000FF01000040080020840800200F10000071
:100C50008808002008100000800800207C08002080
:100C6000012163190D430143656073613361DA60EB
:100C70009A6059601850381C00F014F9201C083094
:100C80005DE67368BAE608239B46073BDC449B4657
:100C9000DA4443465246134200D0CDE631E0231CED
:100CA00064698A1C08330092A34200D181E634E6CD
:100CB0000122E3185968381C0A435A60E368A268A5
:100CC000D3609A6000F0EEF8201C083037E65B2312
:100CD0009C468C44634659004CE6142A58D85B3233
:100CE000101C520090E7B44200D060E702E7009B7E
:100CF000013B00934B461A68083B91469A4200D04C
:100D000080E04346009A1342F1D1736883437360D5
:100D10004000984200D9C4E6002800D1C1E618423C
:100D200072D152460092009A40000432009218425A
:100D3000F9D07BE6381C00F0B5F80020FFE5AA23C7
:100D40005B00994217D8DD3B9C46E90B8C44634617
:100D500059000FE680225201EEE601238010834005
:100D60007168101C0B43736062E701234A464C46CE
:100D70005360002320E7264B994210D87C239C46E1
:100D8000A90C8C4463465900F4E510330093A5E6A2
:100D9000542A23D80A0B6E32101C520034E77E23EB
:100DA000FC219C46E6E51B0500D0AFE6009BB16840
:100DB0004344181C012303434B60EEE6002301204B
:100DC0009B46CBE6211C381C083100F081F95346C4
:100DD0001A68E2E65B464A461A60A2E6AA2040008C
:100DE000824204D8CA0B7732101C52000CE7084824
:100DF000824204D88A0C7C32101C520004E7FC2288
:100E00007E2001E7736883E7534600930EE6C046F1
:100E10005405000070B583073FD0541E002A3BD014
:100E2000CEB2031C032503E0621E002C34D0141C38
:100E300001335A1E16702B42F6D1032C24D9FF25FC
:100E40000D402A0215432A0415430F2C11D9261CE4
:100E5000103E3609013636011A1C9B191560556083
:100E60009560D56010329342F8D10F221440032CC4
:100E70000AD9261FB6080136B6001A1C9B1920C2D3
:100E80009342FCD103221440002C05D0C9B21C1996
:100E900019700133A342FBD170BD141C031CCCE7B5
:100EA0007047C0467047C04638B50023064C051C45
:100EB000081C236000F0A6FA431C00D038BD23684C
:100EC000002BFBD02B60F9E7F408002008B5034B9A
:100ED000002B02D0024800F089F808BD0000000095
:100EE000FD0F0000F0B556465F464D464446F0B44F
:100EF0000E1C3C4B87B01B68019003934933FF33B2
:100F00000493A422039B52009F58002F4CD0049BB3
:100F1000984600239B46C4235B009C46BC44634622
:100F20000293C6235B009A467C68BA44A5007D19EB
:100F3000013C08D526E06B1DFF331B68B34204D08B
:100F4000043D013C1ED3002EF5D17B686A68013B4D
:100F5000A3423AD05B466B60002AF1D07B680299CD
:100F600099460123A34009680591194223D190476E
:100F70007B684B45C5D143461B68BB42C1D1043D8C
:100F8000013CE0D2184B002B0ED07B68002B23D104
:100F90003B68002B24D04246381C1360FFF792FCBC
:100FA00043461F68002FB6D107B03CBC9046994617
:100FB000A246AB46F0BD51460968194207D12B1C29
:100FC0008433196801989047D2E77C60C4E72B1CF2
:100FD000843318689047CBE73B68B8461F1CE1E7AD
:100FE0000023FAE74C140000C508000008B5011CF6
:100FF00000220020002300F09BF908BD38B5094B02
:10100000094CE41AA41009D0084AA518AD00ED183F
:101010002B68013C9847043D002CF9D100F008FAF8
:1010200038BDC0464C08002050080020FFFFFF3F9D
:10103000F8B50C1C061CFFF733FF204FBB685D683A
:1010400003239D431E4B2C1B9C466444240B1D4BC9
:10105000013C24039C4207DD301C0021FFF724FFE4
:10106000BB685B19984204D0301CFFF71BFF0020BF
:10107000F8BD6142301CFFF717FF431C0DD0012360
:101080002D1BBA681D43104B55601A68301C141B89
:101090001C60FFF707FF0120EAE7301C0021FFF783
:1010A00003FFBB68C21A0F2ADEDD08490968401A2F
:1010B0000549086001210A435A60D5E7340400203D
:1010C000EF0F0000FF0F00008808002040080020FC
:1010D000F0B5474680B4002949D00C1C051CFFF729
:1010E000DFFE211C08394F6801233C1C9C430A1970
:1010F0005068984602339843031C5B4886689642C2
:1011000052D0464653603E420BD10826B4460F6883
:101110008444C91BE4198F6867455ED0CE68FE60C1
:10112000B7600127D61876683E4208D1E4184F4EC2
:101130009368B34200D173E0D268DA6093604C4B9D
:1011400027434F600C519C4214D8E408FF3BA21087
:10115000FF3B93404268E4001343436000198368F7
:10116000C8608B608160D960281CFFF79BFE04BCBF
:101170009046F0BD630A042B43D8A30938331A1CE8
:101180005E00B6008619B3680327B3423FD05A68A1
:10119000BA43A24202D99B689E42F8D1DA68CA607B
:1011A0008B609160D960DFE71C1943463B4206D152
:1011B0000B68C91A8A68E418CB68D3609A60012268
:1011C0002C4B22431B684A6081609C42CCD32A4B43
:1011D000281C1968FFF72CFFC6E74646D018406860
:1011E000304209D14646E418D36892682643D3605A
:1011F0009A604E600C51B7E7464626434E600C514C
:10120000B2E7142B14D85B331A1C5E00B9E7012433
:1012100092109440221C4468224342601A1CBEE78C
:101220002743D9609960CB608B604F600C519BE77E
:10123000542B04D8230B6E331A1C5E00A1E7AA229C
:101240005200934204D8E30B77331A1C5E0098E7F0
:101250000A4A934204D8A30C7C331A1C5E0090E720
:10126000FC267E228DE7C046340400203C0400208A
:10127000FF0100003C080020840800205405000005
:1012800038B50C1C0968051C002901D0FFF7F8FFD0
:10129000281C211CFFF71CFF38BDC046234B70B52E
:1012A0001B68984235D0C36C051C002B11D000265A
:1012B0009959002906D00C68281CFFF709FF211E48
:1012C000F9D1EB6C0436802EF2D1281C191CFFF7E3
:1012D000FFFE296C002902D0281CFFF7F9FEA42389
:1012E0005B00E95800290BD02E1C4D36FF36B14269
:1012F00006D00C68281CFFF7EBFE211CA642F8D193
:10130000696D002902D0281CFFF7E2FEAB6B002BB1
:1013100000D170BDEB6B281C9847B8239B00E9589F
:101320000029F6D0281CFFF7ABFFF2E730040020BD
:10133000F8B544465F4656464D469B462F4BF0B4A3
:101340001C68A4235B00051CE0580E1C9046002876
:101350004BD043681F2B0DDC5C1C002D21D10233C8
:101360009B0044601E5000203CBC90469946A2461B
:10137000AB46F8BD224B002B3CD0C8204000FFF705
:1013800097FA002836D0A42200235200A1584360C7
:101390000160A05040328350043283500124002D5C
:1013A000DDD09A0091468144424688214F467A50CA
:1013B000C4225200904680444246873999401268C0
:1013C0008A460A4394464246614611608422494651
:1013D0005F4652008F50022DC1D1021C55468D32FE
:1013E000FF3211680D431560B9E7201C4D30FF3006
:1013F000E050AEE701204042B6E7C0464C14000082
:10140000B1080000044A1368002B03D018181060BC
:10141000181C7047014BF9E7B0080020F8080020BD
:10142000FEE7C046F8B5C046F8BC08BC9E4670470B
:10143000F8B5C046F8BC08BC9E46704703040200DD
:101440001D1917150A0000004300000008000020C5
:041450000000000098
:08145400CCECFF7F0100000059
:10145C00000000000024F40000000000F402002052
:10146C005C030020C403002000000000000000000A
:10147C000000000000000000000000000000000060
:10148C0000000000000000000000000048140000F4
:10149C000000000000000000000000000000000040
:1014AC000000000000000000000000000000000030
:1014BC000000000000000000000000000000000020
:1014CC000000000000000000000000000000000010
:1014DC000000000000000000000000000000000000
:1014EC0000000000000000000000000000000000F0
:1014FC0000000000000000000000000000000000E0
:10150C0001000000000000000E33CDAB34126DE67C
:10151C00ECDE05000B0000000000000000000000E5
:10152C0000000000000000000000000000000000AF
:10153C00000000000000000000000000000000009F
:10154C00000000000000000000000000000000008F
:10155C00000000000000000000000000000000007F
:10188C0008000020000000000000000034040020CC
:10189C00340400203C0400203C04002044040020BC
:1018AC00440400204C0400204C040020540400206C
:1018BC00540400205C0400205C040020640400201C
:1018CC00640400206C0400206C04002074040020CC
:1018DC00740400207C0400207C040020840400207C
:1018EC00840400208C0400208C040020940400202C
:1018FC00940400209C0400209C040020A4040020DC
:10190C00A4040020AC040020AC040020B40400208B
:10191C00B4040020BC040020BC040020C40400203B
:10192C00C4040020CC040020CC040020D4040020EB
:10193C00D4040020DC040020DC040020E40400209B
:10194C00E4040020EC040020EC040020F40400204B
:10195C00F4040020FC040020FC04002004050020FA
:10196C00040500200C0500200C05002014050020A7
:10197C00140500201C0500201C0500202405002057
:10198C00240500202C0500202C0500203405002007
:10199C00340500203C0500203C05002044050020B7
:1019AC00440500204C0500204C0500205405002067
:1019BC00540500205C0500205C0500206405002017
:1019CC00640500206C0500206C05002074050020C7
:1019DC00740500207C0500207C0500208405002077
:1019EC00840500208C0500208C0500209405002027
:1019FC00940500209C0500209C050020A4050020D7
:101A0C00A4050020AC050020AC050020B405002086
:101A1C00B4050020BC050020BC050020C405002036
:101A2C00C4050020CC050020CC050020D4050020E6
:101A3C00D4050020DC050020DC050020E405002096
:101A4C00E4050020EC050020EC050020F405002046
:101A5C00F4050020FC050020FC05002004060020F5
:101A6C00040600200C0600200C06002014060020A2
:101A7C00140600201C0600201C0600202406002052
:101A8C00240600202C0600202C0600203406002002
:101A9C00340600203C0600203C06002044060020B2
:101AAC00440600204C0600204C0600205406002062
:101ABC00540600205C0600205C0600206406002012
:101ACC00640600206C0600206C06002074060020C2
:101ADC00740600207C0600207C0600208406002072
:101AEC00840600208C0600208C0600209406002022
:101AFC00940600209C0600209C060020A4060020D2
:101B0C00A4060020AC060020AC060020B406002081
:101B1C00B4060020BC060020BC060020C406002031
:101B2C00C4060020CC060020CC060020D4060020E1
:101B3C00D4060020DC060020DC060020E406002091
:101B4C00E4060020EC060020EC060020F406002041
:101B5C00F4060020FC060020FC06002004070020F0
:101B6C00040700200C0700200C070020140700209D
:101B7C00140700201C0700201C070020240700204D
:101B8C00240700202C0700202C07002034070020FD
:101B9C00340700203C0700203C07002044070020AD
:101BAC00440700204C0700204C070020540700205D
:101BBC00540700205C0700205C070020640700200D
:101BCC00640700206C0700206C07002074070020BD
:101BDC00740700207C0700207C070020840700206D
:101BEC00840700208C0700208C070020940700201D
:101BFC00940700209C0700209C070020A4070020CD
:101C0C00A4070020AC070020AC070020B40700207C
:101C1C00B4070020BC070020BC070020C40700202C
:101C2C00C4070020CC070020CC070020D4070020DC
:101C3C00D4070020DC070020DC070020E40700208C
:101C4C00E4070020EC070020EC070020F40700203C
:101C5C00F4070020FC070020FC07002004080020EB
:101C6C00040800200C0800200C0800201408002098
:101C7C00140800201C0800201C0800202408002048
:101C8C00240800202C0800202C0800200000020052
:101C9C00FFFFFFFFCD0E0000E9000000C1000000B7
:041CAC000000000034
:04000003000007F5FD
:00000001FF
